{
  "contractName": "Buyer",
  "abi": [
    {
      "inputs": [],
      "payable": false,
      "stateMutability": "nonpayable",
      "type": "constructor"
    },
    {
      "anonymous": false,
      "inputs": [
        {
          "indexed": false,
          "internalType": "uint256",
          "name": "idOrder",
          "type": "uint256"
        },
        {
          "indexed": false,
          "internalType": "string",
          "name": "itemName",
          "type": "string"
        },
        {
          "indexed": false,
          "internalType": "uint256",
          "name": "quantity",
          "type": "uint256"
        },
        {
          "indexed": false,
          "internalType": "bool",
          "name": "status",
          "type": "bool"
        }
      ],
      "name": "OrderRaisedOrUpdated",
      "type": "event"
    },
    {
      "constant": false,
      "inputs": [
        {
          "internalType": "string",
          "name": "itemName",
          "type": "string"
        },
        {
          "internalType": "uint256",
          "name": "quantity",
          "type": "uint256"
        }
      ],
      "name": "purchaseItem",
      "outputs": [],
      "payable": false,
      "stateMutability": "nonpayable",
      "type": "function"
    },
    {
      "constant": false,
      "inputs": [
        {
          "internalType": "uint256",
          "name": "idOrder",
          "type": "uint256"
        },
        {
          "internalType": "string",
          "name": "itemName",
          "type": "string"
        },
        {
          "internalType": "uint256",
          "name": "quantity",
          "type": "uint256"
        }
      ],
      "name": "recieveItem",
      "outputs": [],
      "payable": false,
      "stateMutability": "nonpayable",
      "type": "function"
    },
    {
      "constant": true,
      "inputs": [
        {
          "internalType": "uint256",
          "name": "idOrder",
          "type": "uint256"
        }
      ],
      "name": "getOrderDetails",
      "outputs": [
        {
          "internalType": "string",
          "name": "",
          "type": "string"
        },
        {
          "internalType": "uint256",
          "name": "",
          "type": "uint256"
        },
        {
          "internalType": "bool",
          "name": "",
          "type": "bool"
        }
      ],
      "payable": false,
      "stateMutability": "view",
      "type": "function"
    },
    {
      "constant": true,
      "inputs": [],
      "name": "getNumberOfItemsPurchased",
      "outputs": [
        {
          "internalType": "uint256",
          "name": "",
          "type": "uint256"
        }
      ],
      "payable": false,
      "stateMutability": "view",
      "type": "function"
    },
    {
      "constant": true,
      "inputs": [],
      "name": "getNumberOfItemsReceived",
      "outputs": [
        {
          "internalType": "uint256",
          "name": "",
          "type": "uint256"
        }
      ],
      "payable": false,
      "stateMutability": "view",
      "type": "function"
    }
  ],
  "bytecode": "0x608060405234801561001057600080fd5b506040518060400160405280600181526020016040518060400160405280600981526020017f4a6f686e20536e6f7700000000000000000000000000000000000000000000008152508152506002600080815260200190815260200160002060008201518160000155602082015181600101908051906020019061009592919061009e565b50905050610143565b828054600181600116156101000203166002900490600052602060002090601f016020900481019282601f106100df57805160ff191683800117855561010d565b8280016001018555821561010d579182015b8281111561010c5782518255916020019190600101906100f1565b5b50905061011a919061011e565b5090565b61014091905b8082111561013c576000816000905550600101610124565b5090565b90565b61073e806101526000396000f3fe608060405234801561001057600080fd5b50600436106100575760003560e01c80631c7aa32a1461005c57806327d7a88a1461012157806377c3d81b146101f0578063d103b02c1461020e578063ec7dd7bb1461022c575b600080fd5b61011f6004803603604081101561007257600080fd5b810190808035906020019064010000000081111561008f57600080fd5b8201836020820111156100a157600080fd5b803590602001918460018302840111640100000000831117156100c357600080fd5b91908080601f016020809104026020016040519081016040528093929190818152602001838380828437600081840152601f19601f820116905080830192505050505050509192919290803590602001909291905050506102e5565b005b6101ee6004803603606081101561013757600080fd5b81019080803590602001909291908035906020019064010000000081111561015e57600080fd5b82018360208201111561017057600080fd5b8035906020019184600183028401116401000000008311171561019257600080fd5b91908080601f016020809104026020016040519081016040528093929190818152602001838380828437600081840152601f19601f82011690508083019250505050505050919291929080359060200190929190505050610453565b005b6101f8610552565b6040518082815260200191505060405180910390f35b61021661055c565b6040518082815260200191505060405180910390f35b6102586004803603602081101561024257600080fd5b8101908080359060200190929190505050610565565b604051808060200184815260200183151515158152602001828103825285818151815260200191508051906020019080838360005b838110156102a857808201518184015260208101905061028d565b50505050905090810190601f1680156102d55780820380516001836020036101000a031916815260200191505b5094505050505060405180910390f35b60008060008154809291906001019190505590506040518060a0016040528082815260200160008152602001848152602001838152602001600015158152506003600083815260200190815260200160002060008201518160000155602082015181600101556040820151816002019080519060200190610367929190610664565b506060820151816003015560808201518160040160006101000a81548160ff0219169083151502179055509050507f15d18ab746a5aeb2039ee02ee2d9bb4f6d9db68dd88acaede18ed6820f950b5d8184846000604051808581526020018060200184815260200183151515158152602001828103825285818151815260200191508051906020019080838360005b838110156104115780820151818401526020810190506103f6565b50505050905090810190601f16801561043e5780820380516001836020036101000a031916815260200191505b509550505050505060405180910390a1505050565b60016000815480929190600101919050555060016003600085815260200190815260200160002060040160006101000a81548160ff0219169083151502179055507f15d18ab746a5aeb2039ee02ee2d9bb4f6d9db68dd88acaede18ed6820f950b5d8383836001604051808581526020018060200184815260200183151515158152602001828103825285818151815260200191508051906020019080838360005b838110156105105780820151818401526020810190506104f5565b50505050905090810190601f16801561053d5780820380516001836020036101000a031916815260200191505b509550505050505060405180910390a1505050565b6000600154905090565b60008054905090565b60606000806003600085815260200190815260200160002060020160036000868152602001908152602001600020600301546003600087815260200190815260200160002060040160009054906101000a900460ff16828054600181600116156101000203166002900480601f0160208091040260200160405190810160405280929190818152602001828054600181600116156101000203166002900480156106505780601f1061062557610100808354040283529160200191610650565b820191906000526020600020905b81548152906001019060200180831161063357829003601f168201915b505050505092509250925092509193909250565b828054600181600116156101000203166002900490600052602060002090601f016020900481019282601f106106a557805160ff19168380011785556106d3565b828001600101855582156106d3579182015b828111156106d25782518255916020019190600101906106b7565b5b5090506106e091906106e4565b5090565b61070691905b808211156107025760008160009055506001016106ea565b5090565b9056fea265627a7a7231582013139e5e7ac730b36ed7c929c4bb23cada7cb013db024b3306e09a3d5326498164736f6c63430005100032",
  "source": "// SPDX-License-Identifier: MIT\npragma solidity >=0.4.21 <8.10.0;\n\ncontract Buyer {\n    /* Events */\n    event OrderRaisedOrUpdated(\n        uint256 idOrder,\n        string itemName,\n        uint256 quantity,\n        bool status\n    );\n\n    struct AvailableCustomer {\n        uint256 idCustomer;\n        string customerName;\n    }\n\n    struct Orderlog {\n        uint256 idOrder;\n        uint256 idCustomer;\n        string itemName;\n        uint256 quantity;\n        bool status;\n    }\n\n    // STATE Variables.\n    uint256 numberOfItemsPurchased;\n    uint256 numberOfItemsReceived;\n\n    // Mappings\n    mapping(uint256 => AvailableCustomer) customers;\n    mapping(uint256 => Orderlog) orderLogs;\n\n    /* Constructor */\n    constructor() public {\n        /* For the case of demo, adding a customer in constructor. You can take this idea and extend the contract to contain addCustomer section and hence maintain customerDB in the Blockchain! */\n        customers[0] = AvailableCustomer(1, \"John Snow\");\n    }\n\n    /* TRANSACTIONS */\n    function purchaseItem(string memory itemName, uint256 quantity) public {\n        uint256 idOrder = numberOfItemsPurchased++;\n        orderLogs[idOrder] = Orderlog(idOrder, 0, itemName, quantity, false);\n        emit OrderRaisedOrUpdated(idOrder, itemName, quantity, false);\n    }\n\n    function recieveItem(\n        uint256 idOrder,\n        string memory itemName,\n        uint256 quantity\n    ) public {\n        numberOfItemsReceived++;\n        orderLogs[idOrder].status = true;\n        emit OrderRaisedOrUpdated(idOrder, itemName, quantity, true);\n    }\n\n    /* GETTERS */\n    function getOrderDetails(uint256 idOrder)\n        public\n        view\n        returns (\n            string memory,\n            uint256,\n            bool\n        )\n    {\n        /*returns itemName, quantity & completionStatus*/\n        return (\n            orderLogs[idOrder].itemName,\n            orderLogs[idOrder].quantity,\n            orderLogs[idOrder].status\n        );\n    }\n\n    function getNumberOfItemsPurchased() public view returns (uint256) {\n        return numberOfItemsPurchased;\n    }\n\n    function getNumberOfItemsReceived() public view returns (uint256) {\n        return numberOfItemsReceived;\n    }\n}\n",
  "sourcePath": "/Users/franklinshe/Development/portfolio/marketplace-dapp/contracts/Buyer.sol",
  "compiler": {
    "name": "solc",
    "version": "0.5.16+commit.9c3226ce.Emscripten.clang"
  },
  "schemaVersion": "3.4.4",
  "updatedAt": "2022-01-12T22:33:28.110Z",
  "networkType": "ethereum",
  "devdoc": {
    "methods": {}
  },
  "userdoc": {
    "methods": {}
  }
}