{
  "contractName": "Buyer",
  "abi": [
    {
      "anonymous": false,
      "inputs": [
        {
          "indexed": false,
          "internalType": "uint256",
          "name": "idOrder",
          "type": "uint256"
        },
        {
          "indexed": false,
          "internalType": "string",
          "name": "itemName",
          "type": "string"
        },
        {
          "indexed": false,
          "internalType": "uint256",
          "name": "quantity",
          "type": "uint256"
        },
        {
          "indexed": false,
          "internalType": "bool",
          "name": "status",
          "type": "bool"
        }
      ],
      "name": "OrderRaisedOrUpdated",
      "type": "event"
    },
    {
      "constant": false,
      "inputs": [
        {
          "internalType": "string",
          "name": "itemName",
          "type": "string"
        },
        {
          "internalType": "uint256",
          "name": "quantity",
          "type": "uint256"
        }
      ],
      "name": "purchaseItem",
      "outputs": [],
      "payable": false,
      "stateMutability": "nonpayable",
      "type": "function"
    }
  ],
  "bytecode": "0x608060405234801561001057600080fd5b5061033d806100206000396000f3fe608060405234801561001057600080fd5b506004361061002b5760003560e01c80631c7aa32a14610030575b600080fd5b6100f36004803603604081101561004657600080fd5b810190808035906020019064010000000081111561006357600080fd5b82018360208201111561007557600080fd5b8035906020019184600183028401116401000000008311171561009757600080fd5b91908080601f016020809104026020016040519081016040528093929190818152602001838380828437600081840152601f19601f820116905080830192505050505050509192919290803590602001909291905050506100f5565b005b60008060008154809291906001019190505590506040518060a0016040528082815260200160008152602001848152602001838152602001600015158152506002600083815260200190815260200160002060008201518160000155602082015181600101556040820151816002019080519060200190610177929190610263565b506060820151816003015560808201518160040160006101000a81548160ff0219169083151502179055509050507f15d18ab746a5aeb2039ee02ee2d9bb4f6d9db68dd88acaede18ed6820f950b5d8184846000604051808581526020018060200184815260200183151515158152602001828103825285818151815260200191508051906020019080838360005b83811015610221578082015181840152602081019050610206565b50505050905090810190601f16801561024e5780820380516001836020036101000a031916815260200191505b509550505050505060405180910390a1505050565b828054600181600116156101000203166002900490600052602060002090601f016020900481019282601f106102a457805160ff19168380011785556102d2565b828001600101855582156102d2579182015b828111156102d15782518255916020019190600101906102b6565b5b5090506102df91906102e3565b5090565b61030591905b808211156103015760008160009055506001016102e9565b5090565b9056fea265627a7a72315820fba4d87955ffffece9844061344704e6a3f3f508d73310c72fc51bcb6e6b8d1164736f6c63430005100032",
  "source": "// SPDX-License-Identifier: MIT\npragma solidity >=0.4.21 <8.10.0;\n\ncontract Buyer {\n    // Events\n    event OrderRaisedOrUpdated(\n        uint256 idOrder,\n        string itemName,\n        uint256 quantity,\n        bool status\n    );\n\n    // Structs\n    struct Orderlog {\n        uint256 idOrder;\n        uint256 idCustomer;\n        string itemName;\n        uint256 quantity;\n        bool status;\n    }\n\n    // State\n    uint256 numberOfItemsPurchased;\n    uint256 numberOfItemsReceived;\n\n    // Mappings\n    mapping(uint256 => Orderlog) orderLogs;\n\n    // Functions\n    function purchaseItem(string memory itemName, uint256 quantity) public {\n        uint256 idOrder = numberOfItemsPurchased++;\n        orderLogs[idOrder] = Orderlog(idOrder, 0, itemName, quantity, false);\n        emit OrderRaisedOrUpdated(idOrder, itemName, quantity, false);\n    }\n}\n",
  "sourcePath": "/Users/franklinshe/Development/portfolio/marketplace-dapp/contracts/Buyer.sol",
  "compiler": {
    "name": "solc",
    "version": "0.5.16+commit.9c3226ce.Emscripten.clang"
  },
  "schemaVersion": "3.4.4",
  "updatedAt": "2022-01-12T23:27:56.879Z",
  "networkType": "ethereum",
  "devdoc": {
    "methods": {}
  },
  "userdoc": {
    "methods": {}
  }
}