{
  "contractName": "Seller",
  "abi": [
    {
      "anonymous": false,
      "inputs": [
        {
          "indexed": false,
          "internalType": "uint256",
          "name": "itemId",
          "type": "uint256"
        },
        {
          "indexed": false,
          "internalType": "string",
          "name": "itemName",
          "type": "string"
        },
        {
          "indexed": false,
          "internalType": "uint256",
          "name": "price",
          "type": "uint256"
        }
      ],
      "name": "ItemAdded",
      "type": "event"
    },
    {
      "anonymous": false,
      "inputs": [
        {
          "indexed": false,
          "internalType": "uint256",
          "name": "itemId",
          "type": "uint256"
        }
      ],
      "name": "ItemRemoved",
      "type": "event"
    },
    {
      "anonymous": false,
      "inputs": [
        {
          "indexed": false,
          "internalType": "uint256",
          "name": "idOfCustomer",
          "type": "uint256"
        },
        {
          "indexed": false,
          "internalType": "uint256",
          "name": "idOrder",
          "type": "uint256"
        },
        {
          "indexed": false,
          "internalType": "bool",
          "name": "status",
          "type": "bool"
        }
      ],
      "name": "ProcessOrder",
      "type": "event"
    },
    {
      "constant": false,
      "inputs": [
        {
          "internalType": "string",
          "name": "itemName",
          "type": "string"
        },
        {
          "internalType": "uint256",
          "name": "price",
          "type": "uint256"
        }
      ],
      "name": "addItem",
      "outputs": [],
      "payable": false,
      "stateMutability": "nonpayable",
      "type": "function"
    },
    {
      "constant": false,
      "inputs": [
        {
          "internalType": "uint256",
          "name": "itemId",
          "type": "uint256"
        }
      ],
      "name": "removeItem",
      "outputs": [],
      "payable": false,
      "stateMutability": "nonpayable",
      "type": "function"
    },
    {
      "constant": false,
      "inputs": [
        {
          "internalType": "uint256",
          "name": "idOrder",
          "type": "uint256"
        },
        {
          "internalType": "uint256",
          "name": "idCustomer",
          "type": "uint256"
        }
      ],
      "name": "processOrder",
      "outputs": [],
      "payable": false,
      "stateMutability": "nonpayable",
      "type": "function"
    }
  ],
  "bytecode": "0x608060405234801561001057600080fd5b506104e2806100206000396000f3fe608060405234801561001057600080fd5b50600436106100415760003560e01c806362d6bbdf14610046578063713291711461010b578063804544c414610139575b600080fd5b6101096004803603604081101561005c57600080fd5b810190808035906020019064010000000081111561007957600080fd5b82018360208201111561008b57600080fd5b803590602001918460018302840111640100000000831117156100ad57600080fd5b91908080601f016020809104026020016040519081016040528093929190818152602001838380828437600081840152601f19601f82011690508083019250505050505050919291929080359060200190929190505050610171565b005b6101376004803603602081101561012157600080fd5b8101908080359060200190929190505050610298565b005b61016f6004803603604081101561014f57600080fd5b810190808035906020019092919080359060200190929190505050610308565b005b6000806000815480929190600101919050559050604051806060016040528082815260200184815260200183815250600160008381526020019081526020016000206000820151816000015560208201518160010190805190602001906101d99291906103c0565b50604082015181600201559050507f0444434676a57f70f8479401c50fb4add3e31052f88f4b35e155b7759e5968e58184846040518084815260200180602001838152602001828103825284818151815260200191508051906020019080838360005b8381101561025757808201518184015260208101905061023c565b50505050905090810190601f1680156102845780820380516001836020036101000a031916815260200191505b5094505050505060405180910390a1505050565b600160008281526020019081526020016000206000808201600090556001820160006102c49190610440565b600282016000905550507fa54eda4149a0fb9258911733973ecf1f6762357ed371fc6d1e63123bbce23bed816040518082815260200191505060405180910390a150565b60405180606001604052808281526020018381526020016001151581525060026000848152602001908152602001600020600082015181600001556020820151816001015560408201518160020160006101000a81548160ff0219169083151502179055509050507f3a12966f0a539f47aabe45c01f4118a5a9e60d9a3b87862b8155ced558a2058c818360016040518084815260200183815260200182151515158152602001935050505060405180910390a15050565b828054600181600116156101000203166002900490600052602060002090601f016020900481019282601f1061040157805160ff191683800117855561042f565b8280016001018555821561042f579182015b8281111561042e578251825591602001919060010190610413565b5b50905061043c9190610488565b5090565b50805460018160011615610100020316600290046000825580601f106104665750610485565b601f0160209004906000526020600020908101906104849190610488565b5b50565b6104aa91905b808211156104a657600081600090555060010161048e565b5090565b9056fea265627a7a723158205bf7ef6397f0dfe3372f0d55f876abdeb4b4d2d5d6d2a016d1f31c29509f268c64736f6c63430005100032",
  "source": "// SPDX-License-Identifier: MIT\npragma solidity >=0.4.21 <8.10.0;\n\ncontract Seller {\n    // Events\n    event ItemAdded(uint256 itemId, string itemName, uint256 price);\n    event ItemRemoved(uint256 itemId);\n    event ProcessOrder(uint256 idOfCustomer, uint256 idOrder, bool status);\n\n    // Structs\n    struct Item {\n        uint256 itemId;\n        string itemName;\n        uint256 price;\n    }\n\n    struct Order {\n        uint256 idOfCustomer;\n        uint256 idOrder;\n        bool status;\n    }\n\n    // State\n    uint256 numberOfItems;\n\n    // Mappings\n    mapping(uint256 => Item) items;\n    mapping(uint256 => Order) orders;\n\n    // Transactions\n    function addItem(string memory itemName, uint256 price) public {\n        uint256 itemId = numberOfItems++;\n        items[itemId] = Item(itemId, itemName, price);\n        emit ItemAdded(itemId, itemName, price);\n    }\n\n    function removeItem(uint256 itemId) public {\n        delete items[itemId];\n        emit ItemRemoved(itemId);\n    }\n\n    function processOrder(uint256 idOrder, uint256 idCustomer) public {\n        orders[idOrder] = Order(idCustomer, idOrder, true);\n        emit ProcessOrder(idCustomer, idOrder, true);\n    }\n}\n",
  "sourcePath": "/Users/franklinshe/Development/portfolio/marketplace-dapp/contracts/Seller.sol",
  "compiler": {
    "name": "solc",
    "version": "0.5.16+commit.9c3226ce.Emscripten.clang"
  },
  "schemaVersion": "3.4.4",
  "updatedAt": "2022-01-12T23:55:22.184Z",
  "networkType": "ethereum",
  "devdoc": {
    "methods": {}
  },
  "userdoc": {
    "methods": {}
  }
}