{
  "contractName": "Seller",
  "abi": [
    {
      "anonymous": false,
      "inputs": [
        {
          "indexed": false,
          "internalType": "uint256",
          "name": "idItem",
          "type": "uint256"
        },
        {
          "indexed": false,
          "internalType": "string",
          "name": "itemName",
          "type": "string"
        },
        {
          "indexed": false,
          "internalType": "uint256",
          "name": "price",
          "type": "uint256"
        }
      ],
      "name": "ItemAdded",
      "type": "event"
    },
    {
      "anonymous": false,
      "inputs": [
        {
          "indexed": false,
          "internalType": "uint256",
          "name": "idOfCustomer",
          "type": "uint256"
        },
        {
          "indexed": false,
          "internalType": "uint256",
          "name": "idOrder",
          "type": "uint256"
        },
        {
          "indexed": false,
          "internalType": "bool",
          "name": "status",
          "type": "bool"
        }
      ],
      "name": "ProcessAnOrder",
      "type": "event"
    },
    {
      "constant": false,
      "inputs": [
        {
          "internalType": "string",
          "name": "itemName",
          "type": "string"
        },
        {
          "internalType": "uint256",
          "name": "price",
          "type": "uint256"
        }
      ],
      "name": "addItem",
      "outputs": [],
      "payable": false,
      "stateMutability": "nonpayable",
      "type": "function"
    },
    {
      "constant": false,
      "inputs": [
        {
          "internalType": "uint256",
          "name": "idOrder",
          "type": "uint256"
        },
        {
          "internalType": "uint256",
          "name": "idCustomer",
          "type": "uint256"
        }
      ],
      "name": "processOrder",
      "outputs": [],
      "payable": false,
      "stateMutability": "nonpayable",
      "type": "function"
    }
  ],
  "bytecode": "0x608060405234801561001057600080fd5b50610403806100206000396000f3fe608060405234801561001057600080fd5b50600436106100365760003560e01c806362d6bbdf1461003b578063804544c414610100575b600080fd5b6100fe6004803603604081101561005157600080fd5b810190808035906020019064010000000081111561006e57600080fd5b82018360208201111561008057600080fd5b803590602001918460018302840111640100000000831117156100a257600080fd5b91908080601f016020809104026020016040519081016040528093929190818152602001838380828437600081840152601f19601f82011690508083019250505050505050919291929080359060200190929190505050610138565b005b6101366004803603604081101561011657600080fd5b81019080803590602001909291908035906020019092919050505061025f565b005b6000806000815480929190600101919050559050604051806060016040528082815260200184815260200183815250600260008381526020019081526020016000206000820151816000015560208201518160010190805190602001906101a0929190610329565b50604082015181600201559050507f0444434676a57f70f8479401c50fb4add3e31052f88f4b35e155b7759e5968e58184846040518084815260200180602001838152602001828103825284818151815260200191508051906020019080838360005b8381101561021e578082015181840152602081019050610203565b50505050905090810190601f16801561024b5780820380516001836020036101000a031916815260200191505b5094505050505060405180910390a1505050565b60405180606001604052808281526020018381526020016001151581525060036000848152602001908152602001600020600082015181600001556020820151816001015560408201518160020160006101000a81548160ff0219169083151502179055509050506001600081548092919060010191905055507f13c5c248f81aca9d8fa3643449bd2debad3b6ec68931a70443181d3e60352ee7818360016040518084815260200183815260200182151515158152602001935050505060405180910390a15050565b828054600181600116156101000203166002900490600052602060002090601f016020900481019282601f1061036a57805160ff1916838001178555610398565b82800160010185558215610398579182015b8281111561039757825182559160200191906001019061037c565b5b5090506103a591906103a9565b5090565b6103cb91905b808211156103c75760008160009055506001016103af565b5090565b9056fea265627a7a7231582084b9e282b379cbe2572647fbd34691910b6486c41733f0835d228dcdcd5fca9f64736f6c63430005100032",
  "source": "// SPDX-License-Identifier: MIT\npragma solidity >=0.4.21 <8.10.0;\n\ncontract Seller {\n    // Events\n    event ItemAdded(uint256 idItem, string itemName, uint256 price);\n    event ProcessAnOrder(uint256 idOfCustomer, uint256 idOrder, bool status);\n\n    // Structs\n    struct Item {\n        uint256 idItem;\n        string itemName;\n        uint256 price;\n    }\n\n    struct Orderlog {\n        uint256 idOfCustomer;\n        uint256 idOrder;\n        bool status;\n    }\n\n    // State\n    uint256 numberOfItemsAvailableForSale;\n    uint256 numberOfOrdersProcessed;\n\n    // Mappings\n    mapping(uint256 => Item) items;\n    mapping(uint256 => Orderlog) orderLogs;\n\n    // Transactions\n    function addItem(string memory itemName, uint256 price) public {\n        uint256 idItem = numberOfItemsAvailableForSale++;\n        items[idItem] = Item(idItem, itemName, price);\n        emit ItemAdded(idItem, itemName, price);\n    }\n\n    function processOrder(uint256 idOrder, uint256 idCustomer) public {\n        orderLogs[idOrder] = Orderlog(idCustomer, idOrder, true);\n        numberOfOrdersProcessed++;\n        emit ProcessAnOrder(idCustomer, idOrder, true);\n    }\n}\n",
  "sourcePath": "/Users/franklinshe/Development/portfolio/marketplace-dapp/contracts/Seller.sol",
  "compiler": {
    "name": "solc",
    "version": "0.5.16+commit.9c3226ce.Emscripten.clang"
  },
  "schemaVersion": "3.4.4",
  "updatedAt": "2022-01-12T23:27:56.880Z",
  "networkType": "ethereum",
  "devdoc": {
    "methods": {}
  },
  "userdoc": {
    "methods": {}
  }
}