{
  "contractName": "Seller",
  "abi": [
    {
      "anonymous": false,
      "inputs": [
        {
          "indexed": false,
          "internalType": "uint256",
          "name": "idOfCustomer",
          "type": "uint256"
        },
        {
          "indexed": false,
          "internalType": "uint256",
          "name": "idOrder",
          "type": "uint256"
        },
        {
          "indexed": false,
          "internalType": "bool",
          "name": "status",
          "type": "bool"
        }
      ],
      "name": "ProcessAnOrder",
      "type": "event"
    },
    {
      "constant": false,
      "inputs": [
        {
          "internalType": "string",
          "name": "itemName",
          "type": "string"
        },
        {
          "internalType": "uint256",
          "name": "price",
          "type": "uint256"
        }
      ],
      "name": "addItem",
      "outputs": [
        {
          "internalType": "uint256",
          "name": "",
          "type": "uint256"
        }
      ],
      "payable": false,
      "stateMutability": "nonpayable",
      "type": "function"
    },
    {
      "constant": false,
      "inputs": [
        {
          "internalType": "uint256",
          "name": "idOrder",
          "type": "uint256"
        },
        {
          "internalType": "uint256",
          "name": "idCustomer",
          "type": "uint256"
        }
      ],
      "name": "processOrder",
      "outputs": [],
      "payable": false,
      "stateMutability": "nonpayable",
      "type": "function"
    },
    {
      "constant": true,
      "inputs": [
        {
          "internalType": "uint256",
          "name": "idItem",
          "type": "uint256"
        }
      ],
      "name": "getItem",
      "outputs": [
        {
          "internalType": "string",
          "name": "",
          "type": "string"
        },
        {
          "internalType": "uint256",
          "name": "",
          "type": "uint256"
        }
      ],
      "payable": false,
      "stateMutability": "view",
      "type": "function"
    },
    {
      "constant": true,
      "inputs": [
        {
          "internalType": "uint256",
          "name": "idOrder",
          "type": "uint256"
        }
      ],
      "name": "getStatus",
      "outputs": [
        {
          "internalType": "bool",
          "name": "",
          "type": "bool"
        }
      ],
      "payable": false,
      "stateMutability": "view",
      "type": "function"
    },
    {
      "constant": true,
      "inputs": [],
      "name": "getTotalNumberOfAvailableItems",
      "outputs": [
        {
          "internalType": "uint256",
          "name": "",
          "type": "uint256"
        }
      ],
      "payable": false,
      "stateMutability": "view",
      "type": "function"
    },
    {
      "constant": true,
      "inputs": [],
      "name": "getTotalNumberOfOrdersProcessed",
      "outputs": [
        {
          "internalType": "uint256",
          "name": "",
          "type": "uint256"
        }
      ],
      "payable": false,
      "stateMutability": "view",
      "type": "function"
    }
  ],
  "bytecode": "0x608060405234801561001057600080fd5b506105e3806100206000396000f3fe608060405234801561001057600080fd5b50600436106100625760003560e01c80633129e773146100675780633946abfd146101155780635c622a0e1461013357806362d6bbdf14610179578063804544c414610252578063941e53a71461028a575b600080fd5b6100936004803603602081101561007d57600080fd5b81019080803590602001909291905050506102a8565b6040518080602001838152602001828103825284818151815260200191508051906020019080838360005b838110156100d95780820151818401526020810190506100be565b50505050905090810190601f1680156101065780820380516001836020036101000a031916815260200191505b50935050505060405180910390f35b61011d61037e565b6040518082815260200191505060405180910390f35b61015f6004803603602081101561014957600080fd5b8101908080359060200190929190505050610388565b604051808215151515815260200191505060405180910390f35b61023c6004803603604081101561018f57600080fd5b81019080803590602001906401000000008111156101ac57600080fd5b8201836020820111156101be57600080fd5b803590602001918460018302840111640100000000831117156101e057600080fd5b91908080601f016020809104026020016040519081016040528093929190818152602001838380828437600081840152601f19601f820116905080830192505050505050509192919290803590602001909291905050506103b5565b6040518082815260200191505060405180910390f35b6102886004803603604081101561026857600080fd5b810190808035906020019092919080359060200190929190505050610436565b005b610292610500565b6040518082815260200191505060405180910390f35b60606000600260008481526020019081526020016000206001016002600085815260200190815260200160002060020154818054600181600116156101000203166002900480601f01602080910402602001604051908101604052809291908181526020018280546001816001161561010002031660029004801561036e5780601f106103435761010080835404028352916020019161036e565b820191906000526020600020905b81548152906001019060200180831161035157829003601f168201915b5050505050915091509150915091565b6000600154905090565b60006003600083815260200190815260200160002060020160009054906101000a900460ff169050919050565b6000806000808154809291906001019190505590506040518060600160405280828152602001858152602001848152506002600083815260200190815260200160002060008201518160000155602082015181600101908051906020019061041e929190610509565b50604082015181600201559050508091505092915050565b60405180606001604052808281526020018381526020016001151581525060036000848152602001908152602001600020600082015181600001556020820151816001015560408201518160020160006101000a81548160ff0219169083151502179055509050506001600081548092919060010191905055507f13c5c248f81aca9d8fa3643449bd2debad3b6ec68931a70443181d3e60352ee7818360016040518084815260200183815260200182151515158152602001935050505060405180910390a15050565b60008054905090565b828054600181600116156101000203166002900490600052602060002090601f016020900481019282601f1061054a57805160ff1916838001178555610578565b82800160010185558215610578579182015b8281111561057757825182559160200191906001019061055c565b5b5090506105859190610589565b5090565b6105ab91905b808211156105a757600081600090555060010161058f565b5090565b9056fea265627a7a723158205822c1c9d55dfe17d5a9ea1d70b1645388f12a6cebe7b4824e2457215a9e5a1664736f6c63430005100032",
  "source": "// SPDX-License-Identifier: MIT\npragma solidity >=0.4.21 <8.10.0;\n\ncontract Seller {\n    /* Events */\n    event ProcessAnOrder(uint256 idOfCustomer, uint256 idOrder, bool status);\n\n    struct Item {\n        uint256 idItem;\n        string itemName;\n        uint256 price;\n    }\n\n    struct Orderlog {\n        uint256 idOfCustomer;\n        uint256 idOrder;\n        bool status;\n    }\n\n    // STATE Variables.\n    uint256 numberOfItemsAvailableForSale;\n    uint256 numberOfOrdersProcessed;\n\n    // Mappings\n    mapping(uint256 => Item) items;\n    mapping(uint256 => Orderlog) orderLogs;\n\n    /* TRANSACTIONS */\n    function addItem(string memory itemName, uint256 price)\n        public\n        returns (uint256)\n    {\n        uint256 idItem = numberOfItemsAvailableForSale++;\n        items[idItem] = Item(idItem, itemName, price);\n        return idItem;\n    }\n\n    function processOrder(uint256 idOrder, uint256 idCustomer) public {\n        orderLogs[idOrder] = Orderlog(idCustomer, idOrder, true);\n        numberOfOrdersProcessed++;\n        emit ProcessAnOrder(idCustomer, idOrder, true);\n    }\n\n    /* GETTERS */\n    function getItem(uint256 idItem)\n        public\n        view\n        returns (string memory, uint256)\n    {\n        /*returns itemName and its price*/\n        return (items[idItem].itemName, items[idItem].price);\n    }\n\n    function getStatus(uint256 idOrder) public view returns (bool) {\n        /*returns completion status*/\n        return (orderLogs[idOrder].status);\n    }\n\n    function getTotalNumberOfAvailableItems() public view returns (uint256) {\n        return numberOfItemsAvailableForSale;\n    }\n\n    function getTotalNumberOfOrdersProcessed() public view returns (uint256) {\n        return numberOfOrdersProcessed;\n    }\n}\n",
  "sourcePath": "/Users/franklinshe/Development/portfolio/marketplace-dapp/contracts/Seller.sol",
  "compiler": {
    "name": "solc",
    "version": "0.5.16+commit.9c3226ce.Emscripten.clang"
  },
  "schemaVersion": "3.4.4",
  "updatedAt": "2022-01-12T16:54:48.307Z",
  "devdoc": {
    "methods": {}
  },
  "userdoc": {
    "methods": {}
  }
}