{
  "contractName": "Seller",
  "abi": [
    {
      "anonymous": false,
      "inputs": [
        {
          "indexed": false,
          "internalType": "uint256",
          "name": "idItem",
          "type": "uint256"
        },
        {
          "indexed": false,
          "internalType": "string",
          "name": "itemName",
          "type": "string"
        },
        {
          "indexed": false,
          "internalType": "uint256",
          "name": "price",
          "type": "uint256"
        }
      ],
      "name": "ItemAdded",
      "type": "event"
    },
    {
      "anonymous": false,
      "inputs": [
        {
          "indexed": false,
          "internalType": "uint256",
          "name": "idOfCustomer",
          "type": "uint256"
        },
        {
          "indexed": false,
          "internalType": "uint256",
          "name": "idOrder",
          "type": "uint256"
        },
        {
          "indexed": false,
          "internalType": "bool",
          "name": "status",
          "type": "bool"
        }
      ],
      "name": "ProcessAnOrder",
      "type": "event"
    },
    {
      "constant": false,
      "inputs": [
        {
          "internalType": "string",
          "name": "itemName",
          "type": "string"
        },
        {
          "internalType": "uint256",
          "name": "price",
          "type": "uint256"
        }
      ],
      "name": "addItem",
      "outputs": [],
      "payable": false,
      "stateMutability": "nonpayable",
      "type": "function"
    },
    {
      "constant": false,
      "inputs": [
        {
          "internalType": "uint256",
          "name": "idOrder",
          "type": "uint256"
        },
        {
          "internalType": "uint256",
          "name": "idCustomer",
          "type": "uint256"
        }
      ],
      "name": "processOrder",
      "outputs": [],
      "payable": false,
      "stateMutability": "nonpayable",
      "type": "function"
    },
    {
      "constant": true,
      "inputs": [
        {
          "internalType": "uint256",
          "name": "idItem",
          "type": "uint256"
        }
      ],
      "name": "getItem",
      "outputs": [
        {
          "internalType": "string",
          "name": "",
          "type": "string"
        },
        {
          "internalType": "uint256",
          "name": "",
          "type": "uint256"
        }
      ],
      "payable": false,
      "stateMutability": "view",
      "type": "function"
    },
    {
      "constant": true,
      "inputs": [
        {
          "internalType": "uint256",
          "name": "idOrder",
          "type": "uint256"
        }
      ],
      "name": "getStatus",
      "outputs": [
        {
          "internalType": "bool",
          "name": "",
          "type": "bool"
        }
      ],
      "payable": false,
      "stateMutability": "view",
      "type": "function"
    },
    {
      "constant": true,
      "inputs": [],
      "name": "getTotalNumberOfAvailableItems",
      "outputs": [
        {
          "internalType": "uint256",
          "name": "",
          "type": "uint256"
        }
      ],
      "payable": false,
      "stateMutability": "view",
      "type": "function"
    },
    {
      "constant": true,
      "inputs": [],
      "name": "getTotalNumberOfOrdersProcessed",
      "outputs": [
        {
          "internalType": "uint256",
          "name": "",
          "type": "uint256"
        }
      ],
      "payable": false,
      "stateMutability": "view",
      "type": "function"
    }
  ],
  "bytecode": "0x608060405234801561001057600080fd5b50610675806100206000396000f3fe608060405234801561001057600080fd5b50600436106100625760003560e01c80633129e773146100675780633946abfd146101155780635c622a0e1461013357806362d6bbdf14610179578063804544c41461023e578063941e53a714610276575b600080fd5b6100936004803603602081101561007d57600080fd5b8101908080359060200190929190505050610294565b6040518080602001838152602001828103825284818151815260200191508051906020019080838360005b838110156100d95780820151818401526020810190506100be565b50505050905090810190601f1680156101065780820380516001836020036101000a031916815260200191505b50935050505060405180910390f35b61011d61036a565b6040518082815260200191505060405180910390f35b61015f6004803603602081101561014957600080fd5b8101908080359060200190929190505050610374565b604051808215151515815260200191505060405180910390f35b61023c6004803603604081101561018f57600080fd5b81019080803590602001906401000000008111156101ac57600080fd5b8201836020820111156101be57600080fd5b803590602001918460018302840111640100000000831117156101e057600080fd5b91908080601f016020809104026020016040519081016040528093929190818152602001838380828437600081840152601f19601f820116905080830192505050505050509192919290803590602001909291905050506103a1565b005b6102746004803603604081101561025457600080fd5b8101908080359060200190929190803590602001909291905050506104c8565b005b61027e610592565b6040518082815260200191505060405180910390f35b60606000600260008481526020019081526020016000206001016002600085815260200190815260200160002060020154818054600181600116156101000203166002900480601f01602080910402602001604051908101604052809291908181526020018280546001816001161561010002031660029004801561035a5780601f1061032f5761010080835404028352916020019161035a565b820191906000526020600020905b81548152906001019060200180831161033d57829003601f168201915b5050505050915091509150915091565b6000600154905090565b60006003600083815260200190815260200160002060020160009054906101000a900460ff169050919050565b60008060008154809291906001019190505590506040518060600160405280828152602001848152602001838152506002600083815260200190815260200160002060008201518160000155602082015181600101908051906020019061040992919061059b565b50604082015181600201559050507f0444434676a57f70f8479401c50fb4add3e31052f88f4b35e155b7759e5968e58184846040518084815260200180602001838152602001828103825284818151815260200191508051906020019080838360005b8381101561048757808201518184015260208101905061046c565b50505050905090810190601f1680156104b45780820380516001836020036101000a031916815260200191505b5094505050505060405180910390a1505050565b60405180606001604052808281526020018381526020016001151581525060036000848152602001908152602001600020600082015181600001556020820151816001015560408201518160020160006101000a81548160ff0219169083151502179055509050506001600081548092919060010191905055507f13c5c248f81aca9d8fa3643449bd2debad3b6ec68931a70443181d3e60352ee7818360016040518084815260200183815260200182151515158152602001935050505060405180910390a15050565b60008054905090565b828054600181600116156101000203166002900490600052602060002090601f016020900481019282601f106105dc57805160ff191683800117855561060a565b8280016001018555821561060a579182015b828111156106095782518255916020019190600101906105ee565b5b509050610617919061061b565b5090565b61063d91905b80821115610639576000816000905550600101610621565b5090565b9056fea265627a7a723158206d51b134cd7db90ce27ceaa5e84645cd3f32b65d36e5e7d8ab30f60853663bec64736f6c63430005100032",
  "source": "// SPDX-License-Identifier: MIT\npragma solidity >=0.4.21 <8.10.0;\n\ncontract Seller {\n    /* Events */\n    event ItemAdded(uint256 idItem, string itemName, uint256 price);\n    event ProcessAnOrder(uint256 idOfCustomer, uint256 idOrder, bool status);\n\n    struct Item {\n        uint256 idItem;\n        string itemName;\n        uint256 price;\n    }\n\n    struct Orderlog {\n        uint256 idOfCustomer;\n        uint256 idOrder;\n        bool status;\n    }\n\n    // STATE Variables.\n    uint256 numberOfItemsAvailableForSale;\n    uint256 numberOfOrdersProcessed;\n\n    // Mappings\n    mapping(uint256 => Item) items;\n    mapping(uint256 => Orderlog) orderLogs;\n\n    /* TRANSACTIONS */\n    function addItem(string memory itemName, uint256 price) public {\n        uint256 idItem = numberOfItemsAvailableForSale++;\n        items[idItem] = Item(idItem, itemName, price);\n        emit ItemAdded(idItem, itemName, price);\n    }\n\n    function processOrder(uint256 idOrder, uint256 idCustomer) public {\n        orderLogs[idOrder] = Orderlog(idCustomer, idOrder, true);\n        numberOfOrdersProcessed++;\n        emit ProcessAnOrder(idCustomer, idOrder, true);\n    }\n\n    /* GETTERS */\n    function getItem(uint256 idItem)\n        public\n        view\n        returns (string memory, uint256)\n    {\n        /*returns itemName and its price*/\n        return (items[idItem].itemName, items[idItem].price);\n    }\n\n    function getStatus(uint256 idOrder) public view returns (bool) {\n        /*returns completion status*/\n        return (orderLogs[idOrder].status);\n    }\n\n    function getTotalNumberOfAvailableItems() public view returns (uint256) {\n        return numberOfItemsAvailableForSale;\n    }\n\n    function getTotalNumberOfOrdersProcessed() public view returns (uint256) {\n        return numberOfOrdersProcessed;\n    }\n}\n",
  "sourcePath": "/Users/franklinshe/Development/portfolio/marketplace-dapp/contracts/Seller.sol",
  "compiler": {
    "name": "solc",
    "version": "0.5.16+commit.9c3226ce.Emscripten.clang"
  },
  "schemaVersion": "3.4.4",
  "updatedAt": "2022-01-12T22:33:28.112Z",
  "networkType": "ethereum",
  "devdoc": {
    "methods": {}
  },
  "userdoc": {
    "methods": {}
  }
}